:1000000000800020BD0100006D3500006D3500004E
:100010006D3500006D3500006D350000393500008C
:100020003935000039350000393500006D350000E4
:100030006D350000393500006D35000029350000B0
:100040006D3500006D3500006D3500006D35000028
:100050006D3500006D3500006D3500006D35000018
:100060006D3500006D3500006D3500006D35000008
:100070006D3500006D3500006D3500006D350000F8
:100080006D3500006D3500006D3500006D350000E8
:100090006D3500006D3500006D3500006D350000D8
:1000A000791A00006D3500006D3500006D350000D7
:1000B0006D3500006D3500006D3500006D350000B8
:1000C0006D3500006D3500006D3500006D350000A8
:1000D0006D3500006D3500006D3500006D35000098
:1000E0006D3500006D3500006D3500006D35000088
:1000F0006D350000FD4E00006D35000079530000A5
:100100006D350000295700006D3500006D35000089
:100110006D3500006D3500006D3500006D35000057
:100120006D3500006D3500006D3500006D35000047
:100130006D3500006D3500006D3500006D35000037
:100140006D3500006D3500006D3500006D35000027
:100150006D3500006D3500006D3500006D35000017
:100160006D350000493C00006D3500006D35000024
:100170006D3500006D3500006D3500006D350000F7
:100180006D3500006D3500006D3500006D350000E7
:100190006D3500006D3500006D350000CD36000076
:1001A0001D370000A537000061380000E538000069
:1001B0006D3500006D350000D1470000544B4CF206
:1001C000205210B51A804DF628121A8000BF00BFC9
:1001D00003F0D0F94F4B4FF010621A604E4A9A600C
:1001E0004E4ADA604E4B1A6812F4807204D14D49BF
:1001F0000A604FF4A8521A604B4B1A7802F00802BA
:10020000D2B21AB11A7842F008021A70474B484825
:10021000484C2A221A700023474A02E01959995083
:10022000043399188142F9D3444B454A002101E037
:1002300043F8041B9342FBD34249434800231A5816
:100240005A500433B3F5DE7FF9D1404B404A802148
:1002500003F8011B9342FBD13A4A3E4B1A603E4BD6
:100260000A221A703D4B24221A70A02203F8012C96
:100270003B4A137803F00203DBB2002BF9D0384A73
:10028000137803F01003DBB2002BF9D1344A137852
:1002900003F00C03082BFAD1324B03221A704022D0
:1002A0005A702F4A137803F02003DBB2002BF9D0E9
:1002B0002B4A137803F04003DBB2002BF9D02A4B12
:1002C0002A4A1A6002225A60294B20221A70244AB4
:1002D000137803F00C030C2BFAD1264A264B1A6034
:1002E000264B274A1A60072243F8042C62B603F013
:1002F0009DFB0C4B1B68DC0702D5224803F00AFB70
:1003000006F0C8F903F03CF904F00EFBFEE700BF6D
:100310000E20054030800440823F04000100002B85
:1003200010D0034014D0034002D0074000E0074043
:1003300018B9FF1F1C79000060B3FF1F18B9FF1F19
:10034000A8D5FF1F00AEFF1F0000000000E400E082
:100350005FE400E008ED00E0005006400140064088
:10036000064006400440064044800440000003016B
:1003700000400640C01005000480044014E000E086
:10038000FF76010000DD6850FFFFFFFFFFFFFFFF6A
:10039000FFFFFFFFFFFFFFFFFFFFFFFFFFFFFFFF6D
:1003A000FFFFFFFFFFFFFFFFFFFFFFFFFFFFFFFF5D
:1003B000FFFFFFFFFFFFFFFFFFFFFFFFFFFFFFFF4D
:1003C000FFFFFFFFFFFFFFFFFFFFFFFFFFFFFFFF3D
:1003D000FFFFFFFFFFFFFFFFFFFFFFFFFFFFFFFF2D
:1003E000FFFFFFFFFFFFFFFFFFFFFFFFFFFFFFFF1D
:1003F000FFFFFFFFFFFFFFFFFFFFFFFFFFFFFFFF0D
:10040000FFFFFFFFFFFFFFFFFFFFFFFFFEFFFFFFFD
:1004100008B54BF61810074BC1F6FF701B1A062BD8
:1004200000D808BD40F20003C0F20003002BF8D052
:100430009847F6E71BB9FF1F08B54BF618104BF6A7
:100440001813C1F6FF70C1F6FF731B1A9B1003EB64
:10045000D373591000D108BD40F20002C0F200026F
:10046000002AF8D09047F6E710B54BF61814C1F6FD
:10047000FF74237873B9FFF7CBFF40F20003C0F29B
:1004800000032BB147F61C10C0F20000AFF3008050
:100490000123237010BD00BF08B540F20003C0F275
:1004A00000034BB147F61C104BF61C11C0F20000C4
:1004B000C1F6FF71AFF300804BF61810C1F6FF7064
:1004C00003682BB140F20003C0F2000303B1984768
:1004D000BDE80840B0E700BF044A10B5044640F844
:1004E000182B01F0C9FC204610BD00BFF0740000BD
:1004F00038B5044608460D4603F06CF823680246FA
:100500005B6820462946984738BD38B50446FFF752
:10051000EFFF0546204604F021FA281838BDFFFFFA
:100520000F4B41720360002302610372C3601946DE
:1005300003E0026942F823100133427A9342F8DB68
:10054000084A136813B9106004E013465A69002A78
:10055000FBD15861002343618380C380704700BF93
:100560000074000078D3FF1F10B5042100F12802A9
:100570000446FFF7D5FF054B23604FF48033A3619A
:10058000E36123626362204610BD00BFD0740000A7
:10059000002110B50A460446FFF7C2FF054B20466E
:1005A00040F8183B01F05AFC204600F075FE20464A
:1005B00010BD00BFF074000007B50020022103F059
:1005C000E5F90120022103F0E1F90220014603F0E0
:1005D000DDF90320022103F0D9F90420022103F000
:1005E000D5F90520022103F0D1F90820022103F0FA
:1005F000CDF92821194803F0E5FF194800F0EAFA7F
:100600004021174800F07CFB164A17484BF2333361
:100610009361D36113625362144A9361D36113628D
:100620005362134A9361D361124B1A780A2142F044
:1006300005021A7001F05DFC40B90F490F48FFF741
:1006400064FF4FF4FA7003F0DBF9F6E70C4B1B681C
:100650000193019A0B4B1A600EBD00BF0082FF1F71
:10066000A8BAFF1F70B9FF1F84CFFF1FD4BAFF1FA6
:1006700034B9FF1FA2D3FF1F08740000A8D3FF1FC7
:1006800080D2FF1F6CB9FF1F2DE9F043DFF84082D5
:100690006F4FD8F8003085B00293029A3B68D31AA6
:1006A00041F28732934256D96A4E6B496B48DFF864
:1006B00024926B4DFFF71CFF308805F06BFB60A3A5
:1006C000D3E9002305F01AFA5FA3D3E9002305F06C
:1006D000F1FC022402460B460094604804F084F9C1
:1006E00060495E48FFF704FFB9F8000005F052FBCF
:1006F00053A3D3E9002305F001FA53A3D3E9002360
:1007000005F0D8FC009402460B465448564C04F0C1
:100710006BF956495148FFF7EBFE0A22002329786E
:100720004E4804F029F94F494C48FFF7E1FE0023F9
:1007300021784A480A2204F01FF948484C49FFF73B
:10074000E4FED8F800300393039B3B603388A9F89C
:1007500000302B782370474802F05EFE464802F0D6
:100760005BFE464802F058FE454802F055FE4548FB
:1007700002F052FE444802F04FFE444802F04CFEA4
:10078000434801F091F818B94148424900F0C6FDCC
:10079000384802F05FFE38B13E493F4800F0BEFDE8
:1007A0002E483E49FFF7B1FE334802F053FE38B100
:1007B00038493B4800F0B2FD28483A49FFF7A5FE0A
:1007C0002E4802F047FE38B13249374800F0A6FD06
:1007D00022483649FFF799FE294802F03BFE38B11E
:1007E0002C49334800F09AFD1C483249FFF78DFE32
:1007F000244802F02FFE38B126492F4800F08EFD24
:1008000016482E49FFF781FE1F4802F023FE38B13B
:1008100020492B4800F082FD10482A49FFF775FE59
:100820001A4802F017FE38B11A49274800F076FD41
:100830000A482649FFF769FE05B0BDE8F08300BF0E
:10084000C077265C8FC25540C077265C8FC265405A
:100850006CB9FF1FA0D3FF1F25740000A8D3FF1F92
:1008600085D3FF1F2D7400007CD3FF1F3074000060
:100870003B740000A8B9FF1FB8B9FF1FC8B9FF1F1C
:10088000D8B9FF1FE8B9FF1FC4BAFF1F28BAFF1F5E
:100890002CBBFF1F3D7400009CBDFF1F4A7400006D
:1008A0000CC0FF1F577400007CC2FF1F647400005F
:1008B000ECC4FF1F717400005CC7FF1F7E74000052
:1008C000CCC9FF1F8B7400003CCCFF1F9874000044
:1008D00080D2FF1F86D3FF1F2DE9F74F824F834D34
:1008E000834CDFF884B2DFF884A2DFF88492814E73
:1008F000DFF880823846FFF74BFE2946224638460D
:1009000005F0B8FE5846FFF743FE294622465846F2
:1009100005F0B0FE5046FFF73BFE29462246504602
:1009200005F0A8FE4846FFF733FE29462246484612
:1009300005F0A0FE7048FFF72BFE294622466E48C0
:1009400005F098FE6D4B18460193FFF721FE019BC1
:1009500029461846224605F08DFE6948FFF718FE25
:1009600029462246664805F085FE6648FFF710FED8
:1009700029462246644D6348644C05F07BFE3046B0
:10098000FFF7F2FD2846FFF7EFFD2046FFF7ECFDED
:10099000022108F118024046FFF7C2FD5C4A4046BA
:1009A000C8F8002000F0EAFB5A48076000274560BD
:1009B00007724772C76003F0DEFE5748C0F800B008
:1009C0004FF0010B4560077280F809B0C76003F073
:1009D000D2FE5248C0F800A04FF0020A45600772EC
:1009E00080F809A0C76003F0C6FE4D48C0F800902B
:1009F0004FF003094560077280F80990C76003F063
:100A0000BAFE48483C4A077280E814004772C76043
:100A100003F0B1FE019B444880E81800077280F89B
:100A200009B0C76003F0A7FE354B404880E81800C6
:100A3000077280F809A0C76003F09DFE314A3C4868
:100A400080E81400077280F80990C76003F093FEF5
:100A5000384880E8600007724772C76003F08BFE79
:100A6000354880E85000077280F809B0C76003F08D
:100A700082FE324880E8400107724772C76003F087
:100A80007AFE2F4880E84001077280F809B0C760FD
:100A900003F071FE2B4B2C4A2C481A603946052274
:100AA00002F08AFC59460522294802F085FC51468D
:100AB0000522284802F080FC49460522264802F01B
:100AC0007BFC04210522254802F076FC05210A461C
:100AD000234802F071FC23480821052203B0BDE839
:100AE000F04F02F069BC00BF2CBBFF1FD90400000F
:100AF00060B3FF1F34B9FF1FECC4FF1F5CC7FF1FAB
:100B0000CCC9FF1F3CCCFF1F70B9FF1FD4BAFF1F19
:100B1000E0740000F8B9FF1F08BAFF1F18BAFF1FE2
:100B200078BAFF1F38BAFF1F48BAFF1F58BAFF1F15
:100B300068BAFF1F88BAFF1F98BAFF1FB4BAFF1F19
:100B4000ACCEFF1FA8BAFF1FB0740000A8B9FF1FEA
:100B5000B8B9FF1FC8B9FF1FD8B9FF1FE8B9FF1FF9
:100B6000C4BAFF1F28BAFF1F9CBDFF1F0CC0FF1F88
:100B70007CC2FF1F0CBBFF1F002070470020704786
:100B800008B50368C9B21B68984708BD242938B561
:100B900008BFC2800C460E480A21154601F056F8DF
:100BA000210A0B48FFF7ECFF21460948FFF7E8FF51
:100BB000290A0748FFF7E4FF29460548FFF7E0FF49
:100BC000034801F046F8D0F1010038BF002038BDDD
:100BD00050CFFF1F38B5012504460571334800F09A
:100BE00027FF052002F00CFF3021204644F260026E
:100BF000FFF7CCFF26216C222046FFF7C7FF2821F4
:100C000020464FF4F972FFF7C1FF2C21204640F631
:100C10002272FFF7BBFF3C21204644F24642FFF719
:100C2000B5FF2421204640F23712FFF7AFFF3021F5
:100C3000204644F2FF02FFF7A9FF0221732220465B
:100C4000FFF7A4FF4FF4C87002F0DAFE2E21204611
:100C500041F61D52FFF79AFF04210A462046FFF78E
:100C600095FF062120464FF49872FFF78FFF0A2167
:100C700020461022FFF78AFF0E2120460022FFF7B0
:100C800085FF1021204643F63C42FFF77FFF2221DB
:100C9000204647F67F72FFF779FF2046242136224F
:100CA000FFF774FF2572284638BD00BF50CFFF1FE5
:100CB00010B5044659B920215522FFF767FFE8B166
:100CC000E28842F004022046242192B212E0012977
:100CD00014D12A2140F27312FFF758FF70B1204659
:100CE00020218822FFF752FF40B1E288204622F0FF
:100CF00004022421BDE81040FFF748BF002010BDCA
:100D000038B5044669B90123222147F67F72037181
:100D1000FFF73CFFE28842F010022046242192B205
:100D200012E00379802994BFC1F1800500253BB111
:100D3000C2880023037122F010022421FFF726FF4E
:100D40002046222145EA0522BDE83840FFF71EBFB4
:100D500010B5044608460C4905F03CFB05F02CF89C
:100D600007A3D3E9002304F0C9FE05F013FB0146F5
:100D70002046BDE81040FFF7C3BF00BFAFF30080BF
:100D8000560E2DB29DEFDF3F00000143AFF3008010
:100D90002DE9F041DFF860C0154E164F002A0CBF58
:100DA0004FF064524FF06052002434F8078056F838
:100DB00014509CFBF8F8414504D303F00801C9B274
:100DC00021B905E002342E2CEFD1F6E742F0806223
:100DD00003F00403DBB23BB125F4704305F4704526
:100DE00042F0007243EA15152A430260BDE8F08123
:100DF0004875000018750000006CDC0210B5044650
:100E0000FFF7C6FF204610BD10B5044603F072FD83
:100E1000204610BD02480349034A05F02BBC00BF21
:100E2000BCCEFF1F090E000060B3FF1F024803493C
:100E3000034A05F01FBC00BFC4CEFF1F090E00000F
:100E400060B3FF1F10B500F58072036831FB03F437
:100E500031FB13F304F30F0403F30F03C4EA03435A
:100E600040F8043B9042F0D110BD0023B2F5803F22
:100E700070B510D1C258CC5892FA14F2C250CD18A5
:100E8000C2186D68546894FA15F40833B3F5807F7E
:100E90005460EFD170BDCC5832FB04F632FB14F431
:100EA00006F30F0604F30F04C6EA0444C55894FA87
:100EB00015F5C5500433B3F5807FECD170BD2DE935
:100EC000F0410025064607462C46304629465CB9C7
:100ED00003F030FC0446A0B1B969B1F5803F10D0F1
:100EE0000230FFF7AFFF0CE003F017FC804640B183
:100EF000A01C08F10201BA69FFF7B7FF404603F0F2
:100F0000D7FB01350437042DDFD14CB130462146E3
:100F1000002203F0EDFB2046BDE8F04103F0C8BB22
:100F2000BDE8F08102480349034A05F0A3BB00BFB6
:100F3000CCCEFF1F090E000060B3FF1F70B500216B
:100F4000064603F0EAFB0346A8B172B6194C2068C6
:100F500018B92360184B188003E018490D6815B9BB
:100F60000B6062B607E00B60134B2560002119800F
:100F700062B603F09DFB3046012103F0CEFB034631
:100F8000B8B172B60E49086818B90B600D4B1880DD
:100F900003E00D4A146814B9136062B670BD1360A3
:100FA000084B0C6000221A8062B6BDE8704003F066
:100FB0007FBB70BDE4CEFF1FEACEFF1FF0CEFF1F48
:100FC000DCCEFF1FE0CEFF1FECCEFF1F70B52D4B18
:100FD0002D4D1A68197912682C4BAA42197007D244
:100FE0002B4B1B7833B12B4B4FF080421A6001E042
:100FF000294C02E02C4605F58075284B1868C8B1CD
:10100000274B1A8800EB420333F8021F24F8041B15
:10101000AC42F9D340327F2A214B01D81A800DE02F
:1010200000261E8003F044FB1E4B1C491A681E60FC
:101030000A6003E024F8040BAC42FBD31A4B186897
:10104000FE3CC8B1194B1A8800EB420333F8021F6B
:1010500024F8041BAC42F9D340327F2A134B01D849
:101060001A8070BD00241C8003F022FB104B0E4937
:101070001A681C600A6070BD24F8040BAC42FBD3F4
:1010800070BD00BFD4CEFF1F50ABFF1F1F800040BC
:10109000E8CEFF1F08E200E050AAFF1FE4CEFF1FCA
:1010A000EACEFF1FF0CEFF1FDCCEFF1FE0CEFF1FFA
:1010B000ECCEFF1F224B1A6842F4004230B51A6092
:1010C000204A116841F0020111601A6842F00202E0
:1010D0001A601D4B1B68002B31DB1C4B1B68002B5F
:1010E0002DDB1B4B1B4D4FF086421A60002441F252
:1010F00010025A6043F8A04C174AA03B012043F865
:101100005C0C43F8582C154A4FF4803143F8541CBA
:1011100043F8502C124B2B60C5F8CC40114C20608A
:101120001148124C0460416011490A60114A136071
:10113000114A4FF4C0631360CC355360136130BD66
:101140003C8004404080044000F0024080F00240B7
:1011500000F1024014F00240030000071B0F0100E1
:10116000000F0F0F84F0024088F002400300004798
:1011700090F0024094F0024008B0044070B52F4D4A
:101180000121284603F05EFB2D4B00241C602D4BF3
:101190001C60FFF78FFF2C4B4FF4C0621A602B6866
:1011A0001A682A4A5C711A6002221A711A726FF068
:1011B00001025A734FF0FF329A73DA731A69244AA4
:1011C0005C721A614FF48071DA8AD982D88BD98324
:1011D000998B9C720126062199839E71DE71DC72C7
:1011E0001C731C755C751C765C769C76DC762B79A2
:1011F00003F1804303F504338F221C701A7003F04F
:10120000D1FA144B144A18702B7914481370144AED
:10121000116841F012413143116003F11001114A8C
:1012200042F821005A11920002F1604202F5614237
:1012300003F01F0306FA03F6166070BDD4CEFF1F3D
:10124000E4CEFF1FDCCEFF1F04B0044050AAFF1FF6
:1012500020F00240E8CEFF1F1B800040CD0F0000B1
:1012600000F0024000AEFF1F02480349034A05F0A8
:1012700001BA00BFD4CEFF1F090E000060B3FF1FEC
:1012800002480349034A05F0F5B900BFF4CEFF1F39
:10129000090E000060B3FF1F38B50C23002504467B
:1012A00080F86B3280F86C320565C06D10B103F0C8
:1012B000FFF9E565206E18B103F0FAF90023236603
:1012C00038BDFFFF38B5044672B690F86B320C2B70
:1012D0001BD00023C06D256EE36523660C2384F8C4
:1012E0006B3262B608B103F0E3F915B1284603F09A
:1012F000DFF904F1180000F0E9FD074A138833B163
:10130000013B9BB2138013B138BD62B638BD5E207D
:10131000BDE8384000F00CBDFCCEFF1F30B589B0F1
:1013200004460D46FFF7CEFF5E2000F0E7FC204BA1
:101330001A8801321A8072B61E492A46012368466D
:1013400000F06CFE9DF804302377029B23629DF829
:101350000C3084F824300DF10D0304F1250203F163
:101360000C0153F8040B8B4242F8040BF9D11B78A3
:101370001370079B6846636300F07EFD62B604F15C
:10138000180000F0AFFD002378B11A46A4F86832C7
:10139000A4F866320C2384F86C32142323650823E6
:1013A00084F86A2284F86B32012009B030BD00BF96
:1013B000FCCEFF1F84CFFF1F816B8BB2012B29D185
:1013C000C36B4AF64442934209D045F222629342EB
:1013D00008D042F6113293421CD10F4A03E00F4A63
:1013E000002301E00E4A0423090C012904D002293C
:1013F00010D1520843F00103B0F84610082904D078
:10140000102907D1520843F00203826580F86C323C
:10141000012070470020704740EE3517907BCD05C6
:1014200020F79A0B2DE9F84FB0F86652DFF80483E5
:10143000DFF80493DFF804A3451904460E46663529
:1014400006B972E194F86B320C2B00F26981DFE887
:1014500013F06C016C01C30002016C016C016C01A2
:101460006C010D0045007200AA006C01276D94F814
:101470006A32BE4238BF374604F13800C0182946E8
:101480003A4605F041FC94F86A32FB1884F86A3257
:10149000B4F86632FB18A4F86632236DDB1B2365B3
:1014A000002B40F04281A26B4A4540F03981226C0A
:1014B000524540F03581626C9D498A4240F030814E
:1014C000A26C0F2A40F22C81182A00F2298184F89C
:1014D0006A32ED19F61B226509237AE0276D94F82C
:1014E0006A32BE4238BF374604F13800C018294678
:1014F0003A4605F009FC94F86A32FB1884F86A321F
:10150000B4F86632FB18A4F86632236DC7EB030B00
:10151000C4F850B0BBF1000F40F007812046FFF740
:101520004BFF002800F0FC800823ED19F61B236513
:1015300084F86AB24CE0276D94F86A32BE4238BF34
:10154000374604F13800C01829463A4605F0DCFB5E
:1015500094F86A32FB1884F86A32B4F86632FB18E1
:10156000A4F86632236DDB1B2365002B40F0DD8081
:10157000E26B2265A26B42453D44C7EB060610D1E3
:1015800084F86D3294F86C3284F86B32DB0702D445
:10159000236D636554E703F043F820660028F7D114
:1015A000C3E00B2315E0236DB4F866229E4205D2FA
:1015B0009B1BB6182365A4F86662B6E0ED18F61A10
:1015C0009B18A4F8663208232365002384F86A3246
:1015D0000A2384F86B3233E7236DE16D9E4234BFFA
:1015E00037461F46DE1B26650235B4F8643015F811
:1015F00001CC15F8020C01EB430201339BB2023F10
:1016000040EA0C207F2B5080A4F864301DD920467E
:10161000002203F06DF82046E16D012203F068F826
:10162000E06D03F045F80023266DE365206E04F1BC
:101630006603F619ED1A2665A4F8665208B103F0A0
:1016400037F8236D002B5CD05EE00235002FCCD143
:10165000002E6AD162E0236D9E4228BF1E469B1B6E
:10166000236594F86D323BB1E36DB4F8642003EB6D
:101670004202A36B538016E0023E2B786A7809D1B0
:10168000216D00294AD043EA0223A363022384F890
:101690006D324AE0E16DB4F8640001EB400143EAC9
:1016A000022302354B80B4F86430226E29786878C2
:1016B00002EB430201339BB20235023E41EA0021B4
:1016C0007F2B5180A4F8643021D9E16D002220469F
:1016D00003F00EF80027E06D02F0EAFF2046216ECD
:1016E000E765012203F004F8206E02F0E1FF236DAC
:1016F0002766F61804F16603ED1A2665A4F866520B
:1017000016B90C2384F86B320120BDE8F88F002E47
:10171000B2D1236D13B184F86D6206E00C2302E0B0
:101720000C2384F86C3284F86B320020BDE8F88F0B
:10173000666D74206461746152494646574156454E
:1017400038B590F86B320C2B044600F0A98002F0FB
:1017500067FFE065002800F0A38094F86B32072B48
:101760000AD8D90708D502F05BFF206630B9E06DD2
:10177000BDE8384002F09CBF002323660023A4F894
:101780006430B4F86812B4F86632C91A002904DC6F
:1017900094F86B320C2B06D11CE02046FFF742FE7A
:1017A0000028F5D038BD04F11805284600F07BFB71
:1017B000002863D10EE00023A4F86632204689B2E7
:1017C000FFF730FE94F86B3210B10C2B68D101E0BA
:1017D0000C2B11D104F1180000F078FB314A13886A
:1017E000002B59D0013B9BB21380002B54D00C230B
:1017F00084F86C3284F86B32E16D19B3B4F864305C
:101800003BB91AE001EB430001334280A4F8643095
:1018100000E00022B4F864307F2BF3D90022204688
:1018200002F066FF94F86B32072B06D8DA0704D46F
:101830002046E16D012202F05BFFE06D02F038FF0F
:101840000023E365216E59B3B4F864303BB90FE06F
:1018500001EB430001334280A4F8643000E0002231
:10186000B4F864307F2BF3D92046012202F040FF08
:10187000206E02F01DFF0023236638BD04F16601CF
:1018800028464FF4007200F0FDFA83B20146A4F836
:101890006832002B9ED08EE75E2000F049FAA6E762
:1018A00038BD00BFFCCEFF1F90F86B0207288CBF2D
:1018B000002001207047FFFF054A137803F0020360
:1018C000DBB2002BF9D0024B02221A70704700BF26
:1018D00003600640094B1B7813B9094B1B782BB1E9
:1018E000084A1378202B03D9012303710020704785
:1018F0000548C154013313700120704762CFFF1FA8
:1019000025CFFF1F63CFFF1F04CFFF1F7047FFFFCF
:10191000024B1878024B1B78C01A704761CFFF1F2B
:1019200060CFFF1F064A074913780978994204D906
:101930000549C85C0133137070474FF0FF307047A2
:1019400060CFFF1F61CFFF1F26CFFF1F054B064A49
:101950001B7812789A4202D9044AD05C70474FF043
:10196000FF30704760CFFF1F61CFFF1F26CFFF1FE3
:1019700038B50E4B1B78144613B90D4B1B788BB141
:101980000C4B1D78C5F121039C4202D90122027142
:101990001C4609482246401905F0B6F9054B2D1999
:1019A0001D7000E01C46204638BD00BF62CFFF1FFF
:1019B00025CFFF1F63CFFF1F04CFFF1F10B5104BB4
:1019C0001B7813F020040BD1122001F067FE0D4BA1
:1019D0001B68A3B10C4A14700C4A1078984710BDCC
:1019E0000B4A13780133DBB2012B137002D8094B79
:1019F0001B7823B91220BDE8104001F04FBE10BD86
:101A00000360064000CFFF1F60CFFF1F61CFFF1FA5
:101A10004CCFFF1F25CFFF1F002202710273034A24
:101A20004FF47A7181600260704700BF007500005A
:101A30000C4B00221A700C4B196841F040011960E0
:101A40000A4B0B491A704FF419720A6041F8042CC2
:101A5000084A27211170042151712021117180221F
:101A60001A70704725CFFF1F348004400260064083
:101A70000CA004400160064010B5374A137803F00B
:101A80001001C9B221B903F04002D2B242B92EE02E
:101A90001021117003F04002D2B2002AF3D110BD20
:101AA00013F004032D4A18D0002313702C4A13702E
:101AB0002C4B1B68144603B1984722782A4B1AB95D
:101AC00027491A7001200870284AD02111701A780D
:101AD000274B1A700122274B21E001211170264A61
:101AE0001370224BC0221A7002331B7830E01F4A59
:101AF0001F4C117811F0100117D013F0010310D111
:101B00001C4917480A780078904205D9164B9B5C0F
:101B1000013223700A7000E02370144BD0221A7037
:101B200016E0C0231370237812E0144B12201970B2
:101B30000322134901F088FD0F4A207813781F2BE8
:101B400006D80649097819B10E49C85401331370F3
:101B5000014B02221A7010BD03600640FECEFF1F2B
:101B600063CFFF1F48CFFF1F04CFFF1F0260064057
:101B70000460064064CFFF1F61CFFF1F4CCFFF1FE3
:101B8000BD19000026CFFF1F044B054A49001970FC
:101B900001231370034A1370704700BF04CFFF1F67
:101BA00062CFFF1F63CFFF1F2DE9F041204B1222B0
:101BB0001A70204A0D46117801F02001C9B211B106
:101BC000B42313700BE019460A7802F02002D3B256
:101BD000002BF9D1184A1370164BB0221A7000244A
:101BE000164E174FDFF8608013E03B5D88F8003039
:101BF000FFF762FE0E4B1B78DA0704D5002C14BFEA
:101C0000032002200BE003F01003DBB233B90134F0
:101C1000E4B23378A342E8D8002000E0042015B1F4
:101C2000044B80221A70074B00221A70BDE8F08125
:101C3000036006400260064025CFFF1F63CFFF1FF1
:101C400004CFFF1F62CFFF1F04600640C9B2FFF739
:101C50009BBF0121FFF7A8BF0148FFF7DDBE00BF12
:101C600050CFFF1F184B19491A6842F480521A606E
:101C7000174B184A1A60184A116001F180415160EF
:101C8000164A1A60164B1B78DA0755BF154A164AD2
:101C90004FF410714FF40071116003F00201C9B2EA
:101CA0004FF4007209B9114900E0114903F004032F
:101CB000DBB20A601BB94FF410720E4B02E00E4B00
:101CC0004FF400721A6070473C80044001100038E5
:101CD00000C0024001401F000CC0024000001F80F5
:101CE000A2D3FF1F18B0044008C004401CB0044039
:101CF0000CC0044014B0044004C004405E2830B559
:101D000011D8094A43091478012101FA03F52C433B
:101D10001470064A00F01F0052F8234001FA00F147
:101D20000C4342F8234030BD80CFFF1F68CFFF1F18
:101D30005E2810B514D843090A4A00F01F0052F873
:101D40002340012101FA00F024EA000042F82300B8
:101D500030B9054A107801FA03F320EA030313703F
:101D600010BD00BF68CFFF1F80CFFF1F13B502ABB0
:101D7000026803F8011D546819460122A0471CBDE2
:101D8000C06908B100F0E4BE704738B50446C069C8
:101D9000002510B90123237138BD0571E06992B2A5
:101DA00001F02AF8E3691B7913B101232371284656
:101DB00038BD07B501220DF1070100F0DFFD012854
:101DC0000CBF9DF807004FF6FF7000B20EBDC06952
:101DD00008B510B1FFF7EDFF08BD4FF0FF3008BDAB
:101DE00038B50546C06950B1FFF7E3FF431C044610
:101DF00006D0E869C168013900F076FE00E00446CB
:101E0000204638BDF8B504464FF47A73A360124BF0
:101E1000002020712073236024200D46174604F013
:101E200065FCE061A8B12B4603F120020546186865
:101E300059682E4603C6083393423546F7D11868D1
:101E4000394630600C2204F10D0005F015F900232D
:101E500063762046F8BD00BFB07500004FF47A717C
:101E6000816004490022027102730160C261427301
:101E7000704700BFB0750000014B0360704700BFA2
:101E8000B0750000C06908B508B100F077FD08BD65
:101E9000C3690BB1D86870474FF0FF307047C06915
:101EA00000B18069704738B5C369044663B1FFF774
:101EB000F6FF05462046FFF7EBFF47F6FF73281AAB
:101EC000984228BF184638BD184638BD10B504469C
:101ED000C06930B100F068FEE06904F00FFC002337
:101EE000E36110BDC06918B18079003018BF0120CE
:101EF000704738B50A460121044600F07FFA08B958
:101F0000002038BD04F1100501222846214601F0C9
:101F1000D7F9024640B104F13800294600F006FD29
:101F2000003018BF012038BD2846214601F0C8F90D
:101F30000028E5D0EFE7FFFF0A7902710A4A026044
:101F40004A7942718A7982718A688260CA68C260FD
:101F50000A6902610A7D02758A698261CA69C26181
:101F60000A6A0262704700BFE87500002DE9F04F71
:101F700097B00546383104A891469A46FFF7DCFF32
:101F8000254B4FF0000B8DF838B00D938DF83AB01B
:101F90004C460DAF04AE2DE023782F2B01D1013438
:101FA00028E0C4EB00085FFA88F8B8F10C0F28BFEE
:101FB0004FF00C0821464246684605F05DF816AA27
:101FC00002EB0803384603F858BC00F0EDFD384634
:101FD00031466A46012300F087FE20B90E4B287176
:101FE0002B60A87114E0304600F0DEFD3346444417
:101FF0003E461F4620462F2104F0BEFF0028CBD1CD
:10200000C9EB0404CAF8004028463146FFF794FFA4
:10201000284617B0BDE8F08FE8750000F0B59DB018
:1020200004461E4601A86B461746FFF79FFF009B1C
:10203000FD18FB5C3BB901A913A8FFF77DFF204603
:1020400013A91C4A30E000238DF82C301A4A8DF871
:102050002E309DF80A300A921BB92046FFF7FEFE8B
:1020600024E0023B012B0AA806D814492A4633462D
:1020700000F03AFE50B9F0E701A92A46334600F0D5
:1020800033FE0028E9D001A800F08EFD16F0060FFF
:1020900003D00AA8109900F027FD0AA913A8FFF79A
:1020A0004BFF204613A92A46FFF7ACFE20461DB081
:1020B000F0BD00BFC8750000E8750000BCCFFF1F71
:1020C000084B02211961084900225A719A719A72CB
:1020D0001A7383F8302083F83C20996383F83E20FC
:1020E000704700BF84CFFF1FE8750000094B1A68D6
:1020F00042F480621A602C334FF000421A60064AA4
:10210000FF2111601A68002AFCDA044B1868C0B27B
:10211000704700BF00C0024034C0024038C00240D7
:102120001A4B1B4A70B51A60C307044602D5FFF765
:10213000DDFF013C052C01D8630800E003230022E9
:102140001449154801E0086001329A42FBDB23EA9A
:10215000E372A4EB42040F49104A0F48104D06E009
:10216000166816F0F00FFBD008602E68023C002CB9
:10217000F6D106E0106810F0F00FFBD00868013BC4
:1021800001E0064A0649002BF4D170BD00C00240B0
:1021900000041F8034C00240FFFF00902CC00240AA
:1021A00038C00240074B1A6842F480621A602C3330
:1021B0004FF000421A60044A10601A68002AFCDAE4
:1021C000704700BF00C0024034C0024013B5114C3C
:1021D000052813D8DFE800F0030306090C0F01A857
:1021E0000D490DE001A80D490AE001A80C4907E0DE
:1021F00001A80C4904E001A80B4901E00B4901A822
:1022000000230122FEF7FAFD019B2360FFF72AFD60
:102210001CBD00BFE4CFFF1F00366E0100127A0024
:1022200000093D00C0C62D0080841E00801A0600F3
:1022300010B5194B1B780BB3DA0707D5174A1849A5
:10224000146809682140174C2160116003F00202F4
:10225000D2B23AB1144A1249146849682140114C6B
:102260006160116003F00403DBB23BB10F4B0C4A19
:10227000196892680A400B498A601A600C4A136810
:10228000834208D00B4B0C491960106040F080402D
:1022900050600A4A1A6010BD80CFFF1F80E100E045
:1022A00068CFFF1F74CFFF1F84E100E088E100E0EA
:1022B0000CC0024000C0024001401F0000001F800F
:1022C0000C4B1B78ABB1D90703D50B4A11680B4AED
:1022D000116003F00202D2B21AB1074A5168084AEB
:1022E000116003F00403DBB21BB1034B9A68054B8A
:1022F0001A60704780CFFF1F74CFFF1F00E100E01E
:1023000004E100E008E100E008B50121007901F0F6
:1023100011FBFFF7D5FF08BD054B10B50446186843
:10232000FFF786FF20790021BDE8104001F002BBD5
:10233000E4CFFF1F10B5837904468BB1008940F2CA
:102340000123984207D8C0F500700230FFF7E8FE7D
:1023500040F2022323812046FFF7D6FF0023A3711A
:1023600010BDFFFF73B50B4B1A680092009E0D461F
:102370001C46B6B2FFF7BAFEFF2808D023680193C7
:10238000019B9BB29B1BAB42F4DB002000E00120D1
:102390007CBD00BF80D2FF1FF8B505460E4617462C
:1023A000FFF7C8FF2846FFF7B7FF4FF4967128469E
:1023B000FFF7D8FF46F04000FFF7F4FE182427FA95
:1023C00004F0C0B2083CFFF7EDFE14F1080FF6D19F
:1023D00026B1082E0CBF8720FF2000E09520FFF7D4
:1023E000E1FE0024FFF782FE0306E87204D5FF2C0D
:1023F00002D00134E4B2F5E7F8BDFFFF2DE9F04368
:1024000000230373837283714371544B027185B04F
:102410001B680446019310460F460121019E01F0FE
:10242000B5FA0121207901F085FA4D4B1A6842F482
:1024300080521A600620FFF7C9FE4A4B1868FFF762
:10244000F7FE0A25FF20013DFFF7ACFE15F0FF0562
:10245000F8D1FFF735FF2046FFF75EFFDFF8FC807D
:102460001FFA86F90BE0D8F800300293029B9BB26A
:10247000C9EB0303B3F5FA6F01DD01234EE0002140
:1024800020460A46FFF788FF01280546E072EAD198
:10249000204608214FF4D572FFF77EFF00F00400BC
:1024A000C0B208B125730DE00425FFF71FFE013D02
:1024B00015F0FF05E072F8D1AA284FF0020300D012
:1024C0002CE02373257BDFF89480022D0CBF4FF0A6
:1024D00080450025B6B20AE0D8F800300393039B8C
:1024E0009BB29B1BB3F5FA6F01DD082316E0372181
:1024F00000222046FFF750FF2A4620462921FFF7F9
:102500004BFF0246E0720028E6D1237B022B15D157
:1025100020463A21FFF740FF10B10623637115E012
:10252000FFF7E4FD00F0C000C02801D103232373AE
:10253000FFF7DCFDFFF7DAFDFFF7D8FD2046FFF7D8
:10254000E3FE3846FFF742FE012003E02046FFF796
:10255000DBFE002005B0BDE8F08300BF80D2FF1F86
:102560003C800440E4CFFF1F73B5114B1A68009202
:10257000009E04461D46B6B209E02B680193019BFC
:102580009BB29B1BB3F5967F01DD0F2307E0FFF79E
:10259000ADFDFF28E072F0D0FE2806D00D232046C6
:1025A0006371FFF7B1FE002000E001207CBD00BF99
:1025B00080D2FF1F2DE9F843089D04460F46904640
:1025C0001E4603B974E09B18B3F5007F73DC837972
:1025D0002BB10368994202D10389934216D9237B18
:1025E0002760032B18BF7F023A4620461121FFF7D0
:1025F000D3FE074610B1032363715CE02046FFF76A
:10260000B3FF002857D001232781A3714046FFF76D
:1026100087FD2C492C4B1960F107324604D5FFF792
:1026200065FD05F8010B721E052A01D8530800E06C
:10263000032300212548264F01E00760013199421C
:10264000FBDBA2EB4302AA182248204FDFF880C030
:10265000DFF884800DE0016811F0F00FFBD0C7F8BF
:1026600000C0D8F80010C1F3072985F80090697000
:1026700002359542EFD302EB43031748154A09E0B0
:10268000116811F0F00FFBD00168C1F307272F701C
:10269000697002359D42F3D32389F618A37AB6B246
:1026A000268113B1B6F5007F02D32046FFF742FE24
:1026B0000120BDE8F8832046FFF726FE0020BDE894
:1026C000F88300BF00041F8000C0024034C00240F5
:1026D000FFFF00902CC0024038C0024007B54FF405
:1026E000007300920022FFF765FF0EBD2DE9F04157
:1026F00004462B482B4F03682B4D43F480634FF067
:10270000004603603E6029603946002307468C4638
:10271000D1F800E0BEF1000FFADA12E0D1F800E0E3
:10272000BEF1000FFADA18E01E4A1368002BFCDA3B
:1027300026E0112320466371FFF7E6FD0020BDE887
:10274000F081D0F8008012F803E048F48068C0F807
:1027500000800E60C5F800E0E0E702EB030ED7F85A
:1027600000809EF801E0023348F48068B3F5007FF2
:10277000C7F80080CCF80060C5F800E0C8D1D3E706
:10278000FF20FFF70FFDFF20FFF70CFDFFF7AEFC6A
:10279000E07200F01F000528CBD10120BDE8F081D8
:1027A00000C002402CC0024034C0024070B50B464D
:1027B0000446164609B9122329E0027B032A18BFF2
:1027C0004B021A461821FFF7E7FD054608B104231E
:1027D0001DE02046FE213246FFF788FF88B12046E3
:1027E0004FF41671FFF7BEFD08B915230FE0204620
:1027F0000D212A46FFF7D0FD40B9FFF777FC28B935
:1028000007E02046FFF780FD002070BD14236371B0
:10281000F7E72046FFF778FD012070BD014A024B23
:102820001A60704701100138E4CFFF1F10B504464D
:102830000121006A04F1080200F0C6FC40B1E3691E
:102840002BB9A368E361637963F07F0363710120AF
:1028500010BD70B50446FFF7E9FF08B9002070BD50
:10286000236AA268197C1D79023A02FA01F65A69B4
:10287000B218561E06E0701900F0EAFB0028EDD0F1
:10288000013DEDB2002DF6D1236A1B7C4FF400729E
:1028900002FA03F2A3699B18A361012070BDFFFF38
:1028A00010B50446006900F0AFFB18B1207D024B63
:1028B00003EB401010BD00BFF4CFFF1F70B5002325
:1028C00005462022CA5401330B2BFBD100220724DA
:1028D0001FE02E2B01D0144E06E00A2C22D0082235
:1028E0000A2416E098421DD016F8010F0028F9D1ED
:1028F000A24218D8202B16D97E2B14D8A3F161063A
:10290000192E01EB020001D8203BDBB2013203702B
:10291000D2B215F8013B002BDBD10878203818BF64
:10292000012070BD002070BDC975000038B58279E6
:1029300004460D460AB1002038BD91F82030102B16
:1029400006D1022383714B8CC2615B0183610CE071
:10295000202BF0D103238371496A04F11802C1616D
:10296000284600F0C5FB0028E5D0002301202562A1
:102970006071A360E3602361237538BD2DE9F04FDA
:10298000837985B00446904613B94FF6FF7865E029
:102990004379DB07F9D564E01FFA83F847460E4612
:1029A000DFF8F890DFF8F8A056E0E268A179206A35
:1029B000D3054FEAD35B02291FFA8BF34FEA522E5D
:1029C00002D1416A71441CE00579013D05EA0E051A
:1029D000EDB26BB965B912B9E269A26008E0A1680D
:1029E000039304F1080200F04FFB039B0028CCD0B6
:1029F000226AA168107C5269023901FA00F1891833
:102A00004919CBF500729742627902F04002C8BFC3
:102A1000C3F50075D2B2CCBFADB23D4612B9B5F523
:102A2000007F2ED1DAF80020914220D129E07619DA
:102A30000DE00BEB090358191A46314603E012F872
:102A400001CB01F801CB8242F9D1D31AF618E36821
:102A50007F1B5B19E360BFB2002FA6D10FFA88F08D
:102A600016E08269C368D31A984595D896E70A4A52
:102A7000009610681A462B46FFF79CFD0028D6D119
:102A800083E70846002100F0BFFA0028D1D17CE797
:102A900005B0BDE8F08F00BFF0CFFF1FF4CFFF1FE0
:102AA00064B3FF1F37B58379012B044601D800209A
:102AB00016E0C36801220DF10701C3F34315FFF7C8
:102AC0005DFF01280CBF9DF807304FF6FF731BB266
:102AD0000133ECD0E26803481F32E26000EB45109E
:102AE0003EBD00BFF4CFFF1FF8B5044680790D4608
:102AF00000282CD0A369994224D825E01DB9A560EF
:102B0000E5600120F8BD236AE2681E7C691E093673
:102B1000531E23FA06F321FA06F69E4200D312B999
:102B2000E369A36009E0F61A07E0206AA1683A4663
:102B300000F0AAFA013E10B9F8BD04F10807002E12
:102B4000F3D1DDE70020F8BD0228D7D1D8E7F8BDE2
:102B500038B58379054613B390F90530002B1ADA9E
:102B60000121FFF79DFE0446C8B1AB79012B9CBF44
:102B7000AB69C361EB6943831B0C8382094B1B6800
:102B80002BB1183004F116019847238B63826B79BF
:102B900003F07F036B71BDE8384000F00FBA0020EE
:102BA00038BD00BFE8CFFF1F10B50446FFF7D0FFC8
:102BB00010B10023A371012010BDFFFFF7B582798A
:102BC000012A04460D4645D1437903F00203DBB2E6
:102BD000002B3FD040E0002B3AD0E668FFF784FF9F
:102BE00000B937E0206A35B9E16900F045FB0028FB
:102BF00030D0E5611BE0A16801AA00F045FA48B3B6
:102C0000206A184B90F8207001994FF6F872102F37
:102C100008BF134699420AD200F02EFBD0B1206AB9
:102C2000A1686FF0704200F08BFA00B912E063798E
:102C3000A56163F07F0363712046FFF789FF48B108
:102C40002046B54234BF29463146FFF74DFF07E025
:102C5000104605E0002003E083699942BBD9F9E7FB
:102C6000FEBD00BFF8FFFF0F38B51D4B03EB41134E
:102C70001546DA7A12F0110F044604D015F0420F0F
:102C800001D0002038BD174A2175126822615A8B85
:102C9000998A42EA0141E161DA7A12F0180203D11D
:102CA000DB69A361012309E0102AEAD1206A04F15B
:102CB000180200F01DFA0028E3D00423A37105F0E8
:102CC0000F0305F040050021EDB26371A160E160E2
:102CD00025B12046BDE83840FFF770BF012038BD60
:102CE000F4CFFF1F64B3FF1F2DE9FF478679054628
:102CF0000C461F46002E75D10DF1040810464146C2
:102D0000FFF7DCFD00B96DE0236AA6602B62E66088
:102D1000DFF8E090C24621E02046C3F34318FFF7F6
:102D2000C1FE014600285DD002780AB1E52A09D12A
:102D300026B9D9F8002085F814802A610B7801267D
:102D400083B10BE050460B2203F0ACFF30B907F023
:102D50003003302B46D0284641463FE0E368A26965
:102D60009342D9D307F01203122B3BD136B1284638
:102D70000121FFF795FD044648B933E0A379022B02
:102D800030D02046FFF765FD60B3184C2E7500214A
:102D90002022204601AE04F071F803CE206061606D
:102DA000B3783288A372124B22811B682BB104F1D5
:102DB000100004F10E01984706E021222274A3734B
:102DC000282208236274E373238A63822383E389BE
:102DD000E38200F0F3F828B1297D28463A46FFF750
:102DE00043FF00E0002004B0BDE8F087F4CFFF1FF0
:102DF000E8CFFF1F64B3FF1F2DE9F74F924682799A
:102E0000012A07460C4640F0B680427902F00201E2
:102E1000C9B2002900F0AF80B1E0B969FD688D4208
:102E200001D1554688E0FFF75FFE002800F0A3803F
:102E3000F7E7386A90F804B00BF1FF3B0BEA522B2E
:102E40004FEAC2594FEAD9591BF0FF0B1FFA89F814
:102E50001FD1B8F1000F1CD1B96811B9FA69BAB91C
:102E600011E001AA00F010F9002800F08F80396A03
:102E7000474891F82010019A4FF6F873102908BFBF
:102E80001846824204D33846FFF7D0FC08B972E0F6
:102E9000BA603A6AB968107C5269C8F5007602399E
:102EA000B6B2B54238BF2E4601FA00F18918B6F520
:102EB000007F8B4411D1374A1168594504BF4FF048
:102EC000FF311160344A594610682246FFF76EFC04
:102ED000002850D004F5007429E0B8F1000F10D19B
:102EE000F968BA6991420CD300F068F8002842D022
:102EF000284AC2F800B0294A117841F00101117046
:102F000005E05846012100F07FF8002833D0244A1C
:102F1000914409EB0600611E4A4603E011F801CF17
:102F200002F801CB8242F9D1C9EB02094C44FA689C
:102F3000AD1B9619ADB2FE60FA68002D7FF479AF33
:102F4000B9698A4201D9BA6105E0164A126832B1FC
:102F5000BAF1000F03D07A7962F07F027A717A7940
:102F600002F00802D2B20AB950460FE03846FFF725
:102F7000EFFD0028F8D101223A71002006E002F0AE
:102F80000402D2B2002A7FF448AF4AE7BDE8FE8FC0
:102F9000F8FFFF0F64B3FF1FF0CFFF1FF4D1FF1F37
:102FA000F4CFFF1FE8CFFF1F07B502AB012203F8E4
:102FB000011D1946FFF720FF0EBDFFFF38B50D4B71
:102FC0001B78A3B10C4D0D4B286819680C4AFFF70C
:102FD000EDFB68B10B4C216831B12868084AFFF756
:102FE000E5FB28B100232360024B00221A70012068
:102FF00038BD00BFF4D1FF1FF0CFFF1F64B3FF1F28
:10300000F4CFFF1FECCFFF1F70B50D4D2B6883422F
:1030100004460E460DD0FFF7D1FF08B9002070BD61
:10302000084B094A18682146FFF758FB0028F5D0DD
:103030002C60064B1A7816431E70012070BD00BF2D
:1030400064B3FF1FF0CFFF1FF4CFFF1FF4D1FF1FAA
:1030500010B50446FFF7B2FF78B10023074A1946BE
:1030600099540133B3F5007FFAD1054B1C60054B31
:103070001A7842F001021A70012010BDF4CFFF1F30
:1030800064B3FF1FF4D1FF1FC3680133994270B5C9
:1030900005460C46164601D9002070BD95F8203033
:1030A000C069102B01D10B0A00E0CB0918180E4B98
:1030B0001B68984205D195F82030102B0B4B0AD194
:1030C00005E00021FFF7A0FF0028F4D1E4E7E4B217
:1030D00033F8143005E004F07F0453F8243023F073
:1030E00070433360012070BD64B3FF1FF4CFFF1F36
:1030F0002DE9F74302AEDFF8448046F8041D05468B
:10310000174600244FF6F879284601993246FFF712
:10311000BBFF80B12B7C4FF4007202FA03F395F8E9
:103120002020E418019B102A14BF42464A469342CD
:10313000EAD33C600120BDE8FE8300BFF8FFFF0F2B
:103140000129F8B504460D46174633D9C368013343
:1031500099422FD890F82030C669102B01D10B0A64
:1031600000E0CB099E19144B1B689E4205D194F8D0
:103170002030102B114B0BD106E030460021FFF719
:1031800043FF0028F3D1F8BDEDB223F8157003E03A
:1031900005F07F0543F82570094B1A7842F00102CB
:1031A0001A70237E012B03D9A368F618054B1E6005
:1031B0000120F8BD0020F8BD64B3FF1FF4CFFF1F4E
:1031C000F4D1FF1FECCFFF1F2DE9F74F156806461E
:1031D0008A4617461DB101354FF0000905E04B1E28
:1031E000D3F10009056859EB0309F3682C4603F194
:1031F000010B4FF00008F36898451CD25C4501D9DB
:10320000022425463046214601AAFFF73DFF90B132
:10321000019A631C0AB11D4602E05B1B534503D0B3
:1032200008F101080134E6E7304621466FF07042AC
:10323000FFF786FF58B900201CE004F1FF38304644
:1032400041462246FFF77CFF0028F4D04446AC42BA
:10325000F3D8396821B93D60B9F1000F07D108E012
:1032600030462A46FFF76CFF0028F4D1E3E701352A
:1032700035600120BDE8FE8FF7B502230F4F0360D4
:1032800005460C464FF6F8762846214601AAFFF778
:10329000FBFE80B1284621460022FFF751FF50B1C6
:1032A00095F82030019C102B14BF3B4633469C42BE
:1032B000EAD3012000E00020FEBD00BFF8FFFF0FB1
:1032C000F8B53B4B044619601546CAB1042A01D92A
:1032D0000020F8BD00200146FFF796FE0028F7D039
:1032E000344B03EB051505F5D475AA795206EFD1D9
:1032F000D5F81220632AEBD9D5F80E50002DE7D06F
:1033000028460021FFF780FE0028E1D0294BB3F8C2
:103310000B20B2F5007FDBD11A7C002AD8D0D989E6
:103320000029D5D05B7B002BD2D0227600222371DE
:103330002274012003E0511C072A2174C8D8227C82
:1033400000FA02F18B42F6D11A4BD98A01B9596AB7
:10335000DE89A160AE19E661B3F811001F7C6084BC
:10336000400107FB016100F2FF10616201EB502197
:103370006161B3F813300BB90E4B1B6A691ACB1895
:1033800023FA02F240F6F4739A42E26001D80C2369
:1033900009E04FF6F4739A4201D8102303E0054B7D
:1033A000DB6A6362202384F820300120F8BD00BF6F
:1033B000F0CFFF1FF4CFFF1F37B500238360074B0B
:1033C00042601B680193019B0446036008460D465A
:1033D00000F0D0FA6573207320463EBD80D2FF1FF7
:1033E00013B50446407B00F0C5FA237B834201D12C
:1033F00000200EE0074B1A68009200992268891A93
:1034000062689142F4D31B6820730193019B0120F1
:1034100023601CBD80D2FF1F37B50446FFF7E0FFD5
:1034200010B10023A3600EE0A26872B1084B1968C6
:103430000091009D2168691A914206D31B68A06023
:103440000193019B2360012000E00020A0733EBD9A
:1034500080D2FF1F837B2BB1007BD0F1010038BFEE
:103460000020704718467047224B60221A70E122F4
:103470005A70214B214A1978214B082901D1012189
:1034800002E00A2907D13921116013221A601D4B6D
:1034900019605A600BE00C291A4901D1352000E06F
:1034A0003D20106012221A60174B08601A60174BFB
:1034B00017491B78174A03B101230B601360164BA1
:1034C000164A1978164B012901D880210CE00429ED
:1034D00001D8842108E0082901D8852104E01029B9
:1034E00001D8862100E08721116019600D4B01226F
:1034F0001A7070470040074068B3FF1F08B00340D0
:103500000CB0034008B00B400CB00B40F6D1FF1FCD
:1035100020B0034020B00B4069B3FF1F24B003402C
:1035200024B00B40F5D1FF1F024B1A6801321A601C
:10353000704700BF80D2FF1F38B50B4C254623686B
:10354000580301D500F080FB2B68590501D501F027
:10355000D5FC2B681A0501D501F00EFF2368DB04AA
:10356000EDD502F0E1F8EAE73480044008B5FFF752
:10357000E3FFFFFF014B10221A8070470020054037
:103580007047FFFF024A136818181060184670470A
:103590006CB3FF1FFEE7FFFFEFF313839BB9EFF35D
:1035A000108098B9EFF3058323B10F2B04D9084A93
:1035B000985C01E04FF48070EFF311833BB19842C7
:1035C00028BF184670474FF0FF30704718467047C5
:1035D000F0E300E0002300E00133C25C002AFBD1ED
:1035E0001846704710B50023B0FBF2F402FB14003C
:1035F000092801D8303000E03730C85420460CB1DB
:103600000133F1E7CA185470224605E0885CCC5CAF
:103610008C54C8540132013B9A42F7DB084610BD76
:10362000084B4FF400021A604FF080721A604FF09E
:1036300000721A604FF080621A604FF000621A60E8
:10364000704700BF08E100E0212830B521D8042AE6
:103650001FD8DFE802F00709050B03000B2306E083
:103660000A2304E0082302E00C2300E00923094AAE
:1036700002EBC002526872B61468074D24F470243D
:10368000146044F0807444EA034345F8201013604A
:1036900062B630BDF0750000F8D1FF1F094B03EB97
:1036A000C0035B6872B61A6822F0877222F4803217
:1036B00042F080721A60044B002243F8202062B668
:1036C000704700BFF0750000F8D1FF1F114B10B517
:1036D0001C68E0041C6004D50F4BDA680AB1DB6893
:1036E0009847A10404D50C4B1A690AB11B69984785
:1036F000A20604D5084B1A6E0AB11B6E9847E30662
:1037000006D5054BD3F8842012B1D3F884309847FE
:1037100010BD00BFA0900440F8D1FF1F1F4B10B593
:103720001C68E0031C6004D51D4B1A680AB11B68B5
:103730009847A10304D51A4B5A680AB15B689847A9
:10374000E20704D5164B1A6C0AB11B6C9847A30705
:1037500004D5134B5A6C0AB15B6C9847200704D50B
:103760000F4B9A6C0AB19B6C9847610704D50C4BC0
:10377000DA6C0AB1DB6C9847220304D5084B5A6E09
:103780000AB15B6E9847630306D5054BD3F88020DA
:1037900012B1D3F88030984710BD00BFA0A00440FC
:1037A000F8D1FF1F2C4B10B51C6820071C6004D5F6
:1037B0002A4B5A6A0AB15B6A9847E10604D5274B3F
:1037C0009A6A0AB19B6A9847620604D5234BDA6A63
:1037D0000AB1DB6A9847230604D5204B1A6B0AB15D
:1037E0001B6B9847A00604D51C4B5A6B0AB15B6B48
:1037F0009847E10704D5194BDA6B0AB1DB6B9847A0
:10380000A20704D5154B9A6D0AB19B6D98476307C3
:1038100004D5124BDA6D0AB1DB6D9847A00504D5CB
:103820000E4BDA6E0AB1DB6E9847E10504D50B4BFF
:103830001A6F0AB11B6F9847620504D5074B5A6F80
:103840000AB15B6F9847230504D5044B9A6F0AB100
:103850009B6F984710BD00BFA0B00440F8D1FF1F78
:103860001E4B10B51C68E0071C6004D51C4B9A6801
:103870000AB19B689847210604D5194B5A690AB1C9
:103880005B699847E20604D5154B9A690AB19B69B2
:103890009847630704D5124BDA690AB1DB69984788
:1038A000200704D50E4B1A6A0AB11B6A9847A10774
:1038B00004D50B4B9A6B0AB19B6B9847A20604D5B3
:1038C000074B1A6D0AB11B6D9847630604D5044B6C
:1038D0005A6D0AB15B6D984710BD00BFA0C004408F
:1038E000F8D1FF1F094B10B51C68A2071C6004D556
:1038F000074B9A6E0AB19B6E9847E30704D5044BB9
:10390000DA6F0AB1DB6F984710BD00BFA0D004404A
:10391000F8D1FF1F044B054900221A600A60044ACF
:10392000106010221A60704714D0034004D0034086
:1039300000D00340212810B518D80D4A52F8303075
:1039400093F880423CB1012211B183F8802010BD70
:1039500083F8002110BD02EBC00043681A6811B162
:1039600042F0030201E022F002021A6010BD00BF23
:10397000F0750000212805D8034B53F8303093F838
:103980000002704700207047F0750000212816D80B
:103990000B4A02EBC00301295B6852F8302004D1C6
:1039A00082F880124FF4A27208E0002082F88002B0
:1039B00011B94FF4807201E040F203121A607047AF
:1039C000F075000072B60B4B0B491A680B4B1B6865
:1039D000096862B6490102D5322A88BF0133C2F5AF
:1039E000BB32FF326021B2FBF1F24FF47A7000FB80
:1039F0000320704718E000E004ED00E080D2FF1FD4
:103A000070B50446FFF7DEFF05466CB140F2E736BD
:103A1000FFF7D8FF401BB04203D9013C04D005F5A5
:103A20007A7501F07BF8F3E770BDFFFF10B5FFF783
:103A3000F7FD164B164A174C00204BF6FF71186025
:103A4000596028231360936013619361136293623A
:103A500013639363092222600F4C20606160A360AE
:103A6000236144F8042C0D4C20600D4801600D4981
:103A70000B608B600C4B1A60FFF7F6FC0420FFF71D
:103A8000BFFFBDE8104000F0FBBB00BF0480034057
:103A90000C800340008003400490034004800B40EE
:103AA00008800B400C800B4000800B40F0B50C4BA5
:103AB0000C4C1A7842F0020504EBC50682F00102B4
:103AC000706009481A700678002E0CBF8827C82736
:103AD00047EA014186F0010644F835100670F0BD52
:103AE000ECD2FF1F0080FF1F64D3FF1F431E032B78
:103AF00010B510D872B6094A52F8230048B141688F
:103B000042F82310064A018832F81340611A22F85D
:103B1000131062B610BD002010BD00BFDCD2FF1F25
:103B200094D5FF1F013803280BD872B6064B53F803
:103B30002030002001E05B680130002BFBD162B631
:103B400070470020704700BF30D3FF1F70B572B6BA
:103B5000184E194C01239A1912F8012C02F0080290
:103B6000D2B2E2B19900144A54F831502DB902EBA7
:103B7000431308305860114B09E041F0010154F83B
:103B8000315065B902EBC103083058600C4B42F864
:103B900031300C4B1A78013A1A7062B670BD01339D
:103BA000052BD8D162B6074B00221A70BDE87040D1
:103BB00000F0D2BB287700000080FF1F8800400083
:103BC000C80040005AD3FF1F431E032B30B532D824
:103BD0004001194A40F01000101872B6174CE25C10
:103BE000032A09D8DFE802F016021805083002227D
:103BF00013E00830042210E01148124A50F8234024
:103C000014B940F8231002E052F82300416042F852
:103C100023100FE0032200E00522E25410F0080F09
:103C200001F108030A8843600CBF8823C82343EAD4
:103C30000243036062B630BD0080FF1F98D2FF1FB1
:103C400030D3FF1F40D3FF1F2DE9F74FA54EA64CE1
:103C5000357805F00403DBB2ABB1A44B1B7883B11C
:103C6000A34A137823B1013BDBB2137003B900BE42
:103C7000A04A13782BB1013BDBB213700BB900F0F3
:103C80007FFC0423337005F00802D2B2002A00F052
:103C90008082994B1B781D094FEA930940F0FE8101
:103CA00004EBC903586854F83930C3F38303013B6C
:103CB0000C2B00F2F081DFE813F0A901A901EE015D
:103CC000EE01EE01EE01EE01EE01C501EE01EE01A5
:103CD000EE010D004368894902684B60884B8948B2
:103CE00044F83930884D0A600023036001202870B1
:103CF00092B240F28165AA422361A36117D8B2F55E
:103D0000D06F80F02C81B2F5817F00F0DC8006D886
:103D1000802A00F0C280822A40F03D81C1E040F25A
:103D200002339A4200F00C81B2F5A06F16E042F225
:103D30002105AA4200F0678108D8B2F5086F00F0AB
:103D4000A680B2F5106F40F026810AE042F22120F1
:103D5000824200F01C8142F221339A4240F01B81E2
:103D60001DE18A78614B604D1A702B6A180603D5E5
:103D7000686A083800F0F0FA644A08359542F4D1D0
:103D8000DFF8B091DFF8B0B10025A846CA4655F873
:103D9000090005E04368009300F0DEFA009B184636
:103DA0000028F7D15A4B4AF8050045F80B00E858AF
:103DB00007E042680093019200F0CEFA019A009B5E
:103DC00010460028F5D15851524BE850524B23F879
:103DD0001800524B18F80320023A032A08D8DFE8EB
:103DE00002F002040204002200E0012203F808208D
:103DF00008F101080435B8F1040FC8D1484BDFF8C9
:103E00003C9100221A7001259846464B05EB0902A9
:103E1000EB1812F8012C9B001A7002F00802D2B2C3
:103E20003AB300F07BFAAB0038B104EB451208302E
:103E300050603D4A44F8332006E044F8330098F8D7
:103E40000030013388F8003000F068FAAB0043F02E
:103E5000010338B104EBC30208305060284A44F82B
:103E6000332006E044F8330098F80030013388F836
:103E70000030AA0042F00201013542F003020023A3
:103E8000052D44F8313044F83230BED188E0174B6C
:103E9000264D1B782B70034685E0244D2B706B70EC
:103EA00080E08A88042A00D975E0204D2B706B7061
:103EB0001F4B9200D3181B7803F00203DBB2002BD8
:103EC00070D028706EE08A8802F07F03042B62DCD9
:103ED0004B8803B15FE09100154A8A18117821F0F0
:103EE000020156E0802007400080FF1F63D3FF1FC0
:103EF000EDD2FF1F65D3FF1F9020074050D3FF1F57
:103F0000C800400084D2FF1F64D3FF1F8080FF1FC2
:103F100030D3FF1F40D3FF1F94D5FF1F98D2FF1F40
:103F20005AD3FF1F30C80110880040005BD3FF1F29
:103F3000C0200740DCD2FF1F88D2FF1F2877000077
:103F40008A8802F07F03042B25DC4B8803B122E032
:103F50009100A14A8A18117841F0020119E04A88BB
:103F60009E4B898853F8085CA3F10C009DB133F88F
:103F70000CCC944509D133F80ACC8C4505D1120AF2
:103F8000032A0CBF2B7803890DE00C33EAE789780C
:103F9000934A117004E0904B0F221A7033E0002313
:103FA0001D4600E002238F4AB2F806904B4538BF09
:103FB0009946B9F1400F34BFC8464FF04008284633
:103FC0004146FFF773FDB9EB0809454403D1B8F149
:103FD000400F07D017E0B9F1400F34BFC8464FF08B
:103FE000400800E0C84628464146FFF75FFDB9EBB0
:103FF0000809454402D1B8F1400F04D17A4B7B4AFD
:104000001D60A2F800900122794B43E0754B1A889D
:1040100042F221039A4211D1764A0023C15C99549D
:104020000133072BFAD1734B1B68862B02D1724BDD
:104030000F221A7000200146FFF738FD6F4B44F83D
:10404000393028E0684BD3F80080B8F1000F18D061
:10405000DFF89891B9F800A0BAF1400F34BF554687
:10406000402540462946FFF721FDC5EB0A039BB2D8
:10407000A9F800300BB9402D01D108EB05035A4ACD
:104080001360584B1A88B2F5A06F04D100225A7001
:104090009A785B4B1A700122554B6DE004EBC9080E
:1040A00003F00803D8F80420013DD9B2A2F10800BA
:1040B000EDB2002937D000F04FF95248524B50F87A
:1040C0002510F1B14A6840F8252001F10802C8F82E
:1040D00004205A5D032A0BD8DFE802F00204060828
:1040E000032204E0022202E0052200E004225A55E5
:1040F00018F0080F0A880CBF8823C82343EA02433C
:1041000042E05A5D032A07D8DFE802F0404002048B
:10411000002206E0012204E018F0080F0CBF022282
:1041200003225A5532E054F839301B0C22F8083C6F
:1041300023B322F8061C42F8041C344A344952F8CE
:10414000257017B942F8250002E051F8252050608B
:10415000304A41F8250032F815105B1822F8153066
:1041600000F0DCF818B10830C8F8040006E02A4B6B
:1041700044F839001A7801321A7007E01F4B274AB9
:1041800018F0080F08BF134644F83930082333707D
:104190005EE5E90752D516492048214C02230B70F1
:1041A000204B1A70204B1860986020481A61D86024
:1041B0009A615C60084B0D2018701D48FF23037046
:1041C00000F8083C02741B4A13701B4B9F221A70A4
:1041D00001230B704BE000BFC02007403877000080
:1041E00074D3FF1F50D3FF1F84D2FF1F58D3FF1F6C
:1041F000942007409CD5FF1FEDD2FF1FC800400050
:104200009820074030D3FF1F98D2FF1FDCD2FF1F3A
:1042100088D2FF1F94D5FF1F5AD3FF1F880040008C
:104220009CD2FF1FECD2FF1F0080FF1FF0D2FF1FA8
:10423000882007408C200740842007402B0605D5A6
:104240000C4B0D221A70802203F8402C05F002035B
:10425000DBB22BB1084B1A781A70022203F8082C33
:1042600005F01005EDB215B1044B10221A70BDE82F
:10427000FE8F00BFC02007408820074080200740F5
:1042800008B501F0A7FA00231E491A465A50C8186B
:104290000833882B4260F9D11B4B1A6842F4802204
:1042A0001A601A4B80221A701978184A0906FBD432
:1042B000144B1749C3F307200870C3F307401B0EC4
:1042C00008750B76FF2301F81C3C01F8143C01F83B
:1042D0008C3C137843F0400313700021012302F853
:1042E000783C02F80C1C02F8883C0A4B70226FF4F0
:1042F000507C1A7063444FF400721A60064B10220F
:104300001A7008BD0080FF1F348004400C21074054
:104310009C20074049E400E00821074072B60C4A9F
:104320001168B1FA81F30B2B02D962B600207047F5
:104330004FF0004020FA03F021EA0001116062B65C
:10434000044948225343C8180022CA5042607047AB
:1043500070B3FF1F00B0FF1F0C4B4822C31AB3FB02
:10436000F2F30B2B11D80A4A127822B1094A1278BB
:104370000AB1FFF7EBBB72B6074A4FF0004121FAD2
:1043800003F311681943116062B6704700B0FF1F54
:104390005AD3FF1F63D3FF1F70B3FF1F38B5114CF3
:1043A00023684BB10F4D28684288811801320C7A7E
:1043B00001888A4212D30CE00B4B1B7813B94FF0E3
:1043C000FF340CE00320FFF791FB20600028E9D1C7
:1043D000F5E7FFF7C1FF00232B6000E04280204695
:1043E00038BD00BF70D3FF1F63D3FF1F10B50C4C47
:1043F00023681BB10A4B1B686BB902E0094B1B78A1
:1044000013B94FF0FF3010BD0320FFF76FFB2060A2
:104410000028EFD1F5E75A889B18187A10BD00BF25
:1044200070D3FF1F63D3FF1F044B9888044B1B6896
:104430001BB11A885B88D31AC018704794D5FF1F28
:1044400070D3FF1F2DE9F8432D4B2E4DDFF8C080B0
:1044500001220C461A7006464BE02B682BBBDFF896
:10446000A0904AF2F92798F8003013B9244A137043
:1044700014E00420FFF756FB072808D8012389F829
:104480000030FFF74BFF286078B989F80000013F42
:104490001D4B01D01A782AB101221A704FF0FF305B
:1044A000BDE8F88300F03AFBDDE72968164A488842
:1044B00000231370C0F14002944238BF224600F13D
:1044C00008078018CF194880A41A02E0F05CF8545D
:1044D00001339342FAD1F6184B883F2B06D940237B
:1044E0000B800420FFF770FB00232B60074B052295
:1044F0001A70002CB1D1024B20461C70BDE8F88325
:1045000066D3FF1F68D3FF1F6CD3FF1F65D3FF1F48
:1045100063D3FF1F07B502AB012103F8010D184655
:10452000FFF790FF0EBDFFFFF8B5114B1B78EBB105
:10453000104E114B3468114D01271F704CB1638828
:1045400000272F70042023802146FFF73DFB3760B2
:1045500009E0FFF7E3FE014620B104202C70FFF7CD
:1045600033FB00E02F70044B00221A70F8BD00BF2F
:1045700063D3FF1F68D3FF1F66D3FF1F65D3FF1FE1
:1045800038B50D4B1D78ADB90C4C216831B14B8855
:1045900004200B80FFF718FB256038BDFFF7BEFE37
:1045A000014620B10420BDE83840FFF70DBB044BA5
:1045B00001221A7038BD00BF66D3FF1F68D3FF1FEA
:1045C00065D3FF1FF0B5C02928BFC02172B6124BBA
:1045D0001860124B00221A605A609A60DA601A6101
:1045E0005A6101260AE0540902F01F0753F82450CB
:1045F00006FA07F73D4343F8245001328A42F2D1CC
:1046000000234FF4817203E002FB03046370013363
:104610008B42F9D162B6F0BD80D3FF1F88D3FF1F54
:1046200010B572B61E4B1868A0B9586850B9986892
:1046300050B9D86850B9186950B95869143348B995
:1046400062B610BD043305E0083303E00C3301E02B
:104650001033FFE7B0FA80F14FF0004222FA01F286
:1046600020EA020018600F4802780132D2B20270CC
:1046700062B60B481B1A9B105B01591A4FF48173E9
:104680004B43094903F5F9531E3309680124CC54FF
:10469000C818064B1978914238BF1A7010BD00BF78
:1046A00088D3FF1F85D3FF1F80D3FF1F7CD3FF1F3D
:1046B000417872B60378012B02D9013B037011E0F7
:1046C0004A11094BC9434FF0004001F01F0120FA85
:1046D00001F153F82200084343F82200034B1A78F3
:1046E000013A1A7062B6704788D3FF1F85D3FF1F47
:1046F00030B5C3680EE0187A90420AD158685C7AE7
:10470000006950F8245025B940F824100878013089
:104710000870DB68002BEED130BD437A99424FF030
:10472000000305D2026952F8210042F82130704797
:104730001846704738B5437A994201D3002418E0EF
:10474000036953F82140002243F82120002CF5D0C2
:104750002378012B0DD9FFF763FF054628B10230FE
:10476000A11C4FF4807202F0CFFA2378013B237032
:104770002C46204638BD10B54168427A4B7A9A42A1
:104780000ED872B60268D36813B9D06004E023462D
:10479000DC68002CFBD1D860012313720B7262B667
:1047A00010BDFFFF074B1A784AB9074AFF21117065
:1047B000064A4FF0804101201160187070470020B8
:1047C000704700BF84D3FF1F5EE400E008E100E013
:1047D000F8B5164B164D1A6842F080721A60154BE8
:1047E0001A6842F001021A60134B2E681C680FE031
:1047F000237A63B121682F680B68204698472A689E
:10480000E388D21B12099A42A28088BFE2806469C1
:10481000002CEDD1064B094A1B689B1B1B0913801A
:10482000074A11888B4288BF1380F8BDFCED00E079
:10483000041000E0001000E078D3FF1FA0D3FF1F9A
:1048400086D3FF1F30B572B609B9026822B9264A6D
:1048500000231188144611E003790F2BF7D8224961
:10486000098841FA03F1C907F1D503F1007303F593
:104870009063B2EB431FEAD162B630BD41FA03F256
:1048800012F0010227D1012505FA03F52943218001
:1048900062B6164903710C6844F002040C6051F8CA
:1048A000044C44F0020441F8044C114982240C6089
:1048B0008B768B770B76CB7703F1007303F59063E0
:1048C0005B0103601A605A609A60DA601A615A618B
:1048D0009A61DA6130BD0133102BCFD162B600226C
:1048E0000260037130BD00BFA4D3FF1F40800440AD
:1048F0000080004003790F2B10D8094A137072B65C
:10490000084B0279012101FA02F2198821EA020218
:104910001A8062B61023037100230360704700BF42
:104920001A800040A4D3FF1F08B5FBF745FEFBF734
:10493000ABFE00F0F3F8FAE7F8B506460C468F1820
:10494000002506E0336814F8011B1B6830469847C1
:104950002D18BC42F6D12846F8BDFFFF07B5054B20
:104960001B88ADF80430036801A95B6802229847F0
:104970000EBD00BF00770000F0B505468BB022B930
:104980000368C9B21B6898472CE0012A08BF0A22B5
:1049900021B930228DF82520212413E02124B1FBF8
:1049A000F2F002FB1011C9B2092901D8303100E040
:1049B00037310AAF3E1906F8241C014610B1013CFC
:1049C000E4B2ECE733B1013C0AAAE4B213192D2298
:1049D00003F8242C2B6801AF5B6828463919C4F111
:1049E000220298470BB0F0BD2DE9F34707469146E8
:1049F0009A4610461946002200239DF8284001F0EF
:104A0000A1FC20B10AF1004A4FF0010800E0804605
:104A100000260022304B0AE0104619462CA3D3E9A9
:104A2000002301F01DFA013602460B46F6B2A642FB
:104A3000F2D14846514601F061F80D46044601F0B6
:104A4000A9FC81464346384649460A22FFF794FFAF
:104A50008046002E37D0484601F08CF9072E28BF3B
:104A600007260B4602462946204601F045F8013646
:104A70002E238DF80030F6B24FF001091BE0002222
:104A8000164B01F0EDF90D46044601F083FC02AA35
:104A900002EB0903C0B200F1300203F8082C01F068
:104AA00079F909F1010902460B46204629465FFAC9
:104AB00089F901F021F8B145E1D13B6838465B68DE
:104AC00069464A4698474046BDE8FC87AFF30080F8
:104AD0009A9999999999B93F0000E03F00002440C4
:104AE00008461146FFF7AEBC0846FFF713BDFFF7B7
:104AF0001BBDFFF77BBCFFF751BCFFF795BC7047B0
:104B0000044B00221A711A73034A4FF47A719960A8
:104B10001A607047A8D3FF1F1077000008B50E4B2E
:104B20001A78C2B901221A70FFF77EFC08B1FFF7AC
:104B3000E6FF00F08BF908B100F0E6FE00F0C4FBE0
:104B400008B100F053FF00F0A9FD08B100F0C0FF6C
:104B5000014B00221A7008BDB8D3FF1F194B1A6809
:104B600042F480621A60184A00231370174A1370C7
:104B7000174A1370174A1370174A1370174B40F2F5
:104B800013321A604FF451725A60154BC0F344321D
:104B90001A70C0F347125A700221042200F01F005D
:104BA00098729A70D9745A7588221A743C22DA70F5
:104BB0000C4B40226FF44A711A705B184FF400528C
:104BC0001A607047348004403BD4FF1FBAD3FF1FE4
:104BD00044D4FF1F3CD4FF1FB9D3FF1F40A00440A3
:104BE00000A006402DE400E0134A937800F0030192
:104BF00003F0EC030B43410748BF43F010039370ED
:104C000000F00F03042B0C4903D18B7943F04003D0
:104C10008B715379C20603F0EF03074A48BF43F094
:104C2000100353719379800603F0EF0348BF43F0FC
:104C300010039371704700BF00A006400E4B1B6825
:104C4000580510B503D410BDFFF768FF00E00B4C0A
:104C50002378002BF8D10A4A4FF400511160094A19
:104C60000949D37040F203120A604A60074A137080
:104C7000074A137010BD00BF34800440B9D3FF1F32
:104C800084E100E000A0064040A004403BD4FF1FA8
:104C9000BAD3FF1F38B5094B04461D78002DFCD14F
:104CA00020460121FEF772FE20462946FEF742FE0D
:104CB000034B53F83420034B1A6038BDB9D3FF1FA0
:104CC000F075000040D4FF1F1D4B1B685A052DE9ED
:104CD000F041074631D51B4B1B680BB101221A70FE
:104CE000194B1A4D1C781A4EDFF8688001343F2C9E
:104CF00088BF002414E0FEF74FFC40280CDC337919
:104D00001B060DD52B7801333F2B88BF002318F8E5
:104D10000320F2712B7003E0FF2801DDFFF7FEFE98
:104D20002B78A342E7D00B4B1F550B4B01221A7077
:104D3000054B1C70064BBC22DA70BDE8F08100BF49
:104D40003480044040D4FF1F44D4FF1F3CD4FF1FD5
:104D500000A00640BBD3FF1FB9D3FF1F2DE9F84FBA
:104D6000254B1B6806465805894642D5234B1B68D0
:104D70000BB101221A70224DB346AA4632E0214BF4
:104D80001C782F7801343F2C88BF0024A74209D01B
:104D90001BF8012B1C4B1A551C4B01221A70194B86
:104DA0001C701FE01A4BBC22DA709846FEF7F4FB29
:104DB00040280FDC98F8043019060FD52B78124ADA
:104DC00001333F2B88BF0023D25C88F807208AF884
:104DD000003003E0FF2801DDFFF7A0FE2B78BB4287
:104DE000E4D0D5E706EB09039B45C8D3084BBC22AA
:104DF000DA70BDE8F88F00BF3480044040D4FF1F54
:104E00003CD4FF1F44D4FF1FBBD3FF1FB9D3FF1FE8
:104E100000A0064010B5044C01E0FFF77FFE2378A8
:104E2000002BFAD110BD00BFB9D3FF1F054B064AB6
:104E30001B781078834201D33F3000E00138C01A5C
:104E4000704700BF44D4FF1F3CD4FF1F044B1878A9
:104E5000044B1B78984238BF4030C01A704700BFDF
:104E60003BD4FF1FBAD3FF1F084B094A19781378A8
:104E7000994207D001333F2B88BF00230549C85C06
:104E8000137070474FF0FF30704700BF3BD4FF1FD7
:104E9000BAD3FF1FFBD3FF1F074B1A78074B1B78B2
:104EA0009A4206D001333F2B88BF0023044AD05CCE
:104EB00070474FF0FF3070473BD4FF1FBAD3FF1F3E
:104EC000FBD3FF1F094B1B685B050ED5084BDA7837
:104ED00002F0CB02DA7040225A74DA7842F03402DF
:104EE000DA70044B1A78044B1A707047348004400F
:104EF00000A00640BAD3FF1F3BD4FF1F70B52D4B57
:104F00001A7912F0300F1DD072B6997D21B9DA7975
:104F100040225A7462B615E062B6274A27481278D2
:104F2000274D00781C46531C3F2B88BF0023E67991
:104F300083421CBFEE541A46013911F0FF01F2D131
:104F40001D4B1A701B4AD37819465BB2002B1BDA33
:104F50001379180618D51B4B1B4C1D781B4B1B785F
:104F6000AB4209D001333F2B88BF00231079E05CAE
:104F7000D071107D0728F3D9144A13700D4B1A799C
:104F8000120601D57C22DA7001F04003DBB27BB15E
:104F9000084B1A7902F04002D2B2194642B10C4BCA
:104FA00000221A700B4B1B6803B11A703C23CB70A4
:104FB00070BD00BF00A006403BD4FF1FBAD3FF1F47
:104FC000FBD3FF1F44D4FF1FBBD3FF1F3CD4FF1FE5
:104FD000B9D3FF1F40D4FF1F184B1A6842F4006278
:104FE0001A60174A00231370164A1370164A13707A
:104FF000164A1370164A1370164B40F213321A6099
:105000004FF451725A60144BC0F344321A70C0F31B
:1050100047125A7000F01F000422022198729A7001
:10502000D9745A7588221A743C22DA700B4B4022CC
:105030001A700B4B4FF400421A60704734800440E2
:10504000AFD4FF1F46D4FF1FB8D4FF1FB0D4FF1F3B
:1050500045D4FF1F0CB0044000B006402FE400E030
:1050600004E100E0134A937800F0030103F0EC033D
:105070000B43410748BF43F01003937000F00F0348
:10508000042B0C4903D18B7943F040038B71537986
:10509000C20603F0EF03074A48BF43F01003537101
:1050A0009379810603F0EF0348BF43F01003937137
:1050B000704700BF00B006400E4B1B68180510B5C6
:1050C00003D410BDFFF72AFD00E00B4C2378002B22
:1050D000F8D10A4A4FF400411160094A0949D370D6
:1050E00040F203120A604A60074A1370074A1370BD
:1050F00010BD00BF3480044045D4FF1F84E100E0B0
:1051000000B006400CB00440AFD4FF1F46D4FF1FD0
:1051100038B5094B04461D78002DFCD120460121ED
:10512000FEF734FC20462946FEF704FC034B53F8F7
:105130003420034B1A6038BD45D4FF1FF0750000C2
:10514000B4D4FF1F1D4B1B681A052DE9F04107461B
:1051500031D51B4B1B680BB101221A70194B1A4D2C
:105160001C781A4EDFF868800134272C88BF002491
:1051700014E0FEF711FA40280CDC33791B060DD53C
:105180002B780133272B88BF002318F80320F271F6
:105190002B7003E0FF2801DDFFF7C0FC2B78A34252
:1051A000E7D00B4B1F550B4B01221A70054B1C709F
:1051B000064BBC22DA70BDE8F08100BF34800440A9
:1051C000B4D4FF1FB8D4FF1FB0D4FF1F00B00640F7
:1051D00047D4FF1F45D4FF1F2DE9F84F254B1B680F
:1051E00006461805894642D5234B1B680BB10122A0
:1051F0001A70224DB346AA4632E0214B1C782F7814
:105200000134272C88BF0024A74209D01BF8012BAA
:105210001C4B1A551C4B01221A70194B1C701FE0B5
:105220001A4BBC22DA709846FEF7B6F940280FDC1C
:1052300098F8043019060FD52B78124A0133272B22
:1052400088BF0023D25C88F807208AF8003003E08A
:10525000FF2801DDFFF762FC2B78BB42E4D0D5E7E5
:1052600006EB09039B45C8D3084BBC22DA70BDE8A6
:10527000F88F00BF34800440B4D4FF1FB0D4FF1FA8
:10528000B8D4FF1F47D4FF1F45D4FF1F00B006400E
:1052900010B5044C01E0FFF741FC2378002BFAD154
:1052A00010BD00BF45D4FF1F054B064A1B78107880
:1052B000834201D3273000E00138C01A704700BF95
:1052C000B8D4FF1FB0D4FF1F044B1878044B1B78D1
:1052D000984238BF4030C01A704700BFAFD4FF1F9C
:1052E00046D4FF1F084B094A19781378994207D012
:1052F00001333F2B88BF00230549C85C13707047FA
:105300004FF0FF30704700BFAFD4FF1F46D4FF1FE0
:105310006FD4FF1F074B1A78074B1B789A4206D0B1
:1053200001333F2B88BF0023044AD05C70474FF005
:10533000FF307047AFD4FF1F46D4FF1F6FD4FF1F4D
:10534000094B1B681B050ED5084BDA7802F0CB021F
:10535000DA7040225A74DA7842F03402DA70044B80
:105360001A78044B1A7070473480044000B006402D
:1053700046D4FF1FAFD4FF1F70B52D4B1A7912F022
:10538000300F1DD072B6997D21B9DA7940225A7456
:1053900062B615E062B6274A27481278274D007892
:1053A0001C46531C3F2B88BF0023E67983421CBF59
:1053B000EE541A46013911F0FF01F2D11D4B1A705B
:1053C0001B4AD37819465BB2002B1BDA13791806F7
:1053D00018D51B4B1B4C1D781B4B1B78AB4209D0BF
:1053E0000133272B88BF00231079E05CD071107D3A
:1053F0000728F3D9144A13700D4B1A79120601D5F8
:105400007C22DA7001F04003DBB27BB1084B1A79E1
:1054100002F04002D2B2194642B10C4B00221A707F
:105420000B4B1B6803B11A703C23CB7070BD00BFDF
:1054300000B00640AFD4FF1F46D4FF1F6FD4FF1F3C
:10544000B8D4FF1F47D4FF1FB0D4FF1F45D4FF1FA0
:10545000B4D4FF1F174B1A6842F480521A60164AE0
:1054600000231370154A1370154A1370154A1370F0
:10547000154A1370154A40F2133111604FF45171FF
:105480005160134AC0F344311170C0F3471100F06A
:105490001F0051709072937013742C23D3700D4BB6
:1054A00040226FF44B711A705B184FF400321A608F
:1054B000704700BF3480044023D5FF1FBAD4FF1FBC
:1054C0002CD5FF1F24D5FF1FB9D4FF1F08C00440EF
:1054D00000C0064031E400E0134A937800F0030175
:1054E00003F0EC030B43410748BF43F010039370F4
:1054F00000F00F03042B0C4903D18B7943F04003D8
:105500008B715379C20603F0EF03074A48BF43F09B
:10551000100353719379800603F0EF0348BF43F003
:1055200010039371704700BF00C006400E4B1B680C
:10553000D80410B503D410BDFFF7F0FA00E00B4C0F
:105540002378002BF8D10A4A4FF400311160094A40
:105550000949D37040F203120A604A60074A137087
:10556000074A137010BD00BF34800440B9D4FF1F38
:1055700084E100E000C0064008C0044023D5FF1FBE
:10558000BAD4FF1F38B5094B04461D78002DFCD155
:1055900020460121FEF7FAF920462946FEF7CAF90E
:1055A000034B53F83420034B1A6038BDB9D4FF1FA6
:1055B000F075000028D5FF1F1D4B1B68DA042DE98C
:1055C000F041074631D51B4B1B680BB101221A7005
:1055D000194B1A4D1C781A4EDFF868800134272CBD
:1055E00088BF002414E0FDF7D7FF40280CDC337996
:1055F0001B060DD52B780133272B88BF002318F805
:105600000320F2712B7003E0FF2801DDFFF786FA1B
:105610002B78A342E7D00B4B1F550B4B01221A707E
:10562000054B1C70064BAC22DA70BDE8F08100BF60
:105630003480044028D5FF1F2CD5FF1F24D5FF1F21
:1056400000C00640BBD4FF1FB9D4FF1F38B54518B2
:10565000044603E014F8010BFFF7AEFFAC42F9D1AA
:1056600038BDFFFF10B5044C01E0FFF757FA23786F
:10567000002BFAD110BD00BFB9D4FF1F054B064A5D
:105680001B781078834201D3273000E00138C01A1C
:10569000704700BF2CD5FF1F24D5FF1F044B18787F
:1056A000044B1B78984238BF4030C01A704700BF87
:1056B00023D5FF1FBAD4FF1F084B094A1978137866
:1056C000994207D001333F2B88BF00230549C85CAE
:1056D000137070474FF0FF30704700BF23D5FF1F96
:1056E000BAD4FF1FE3D4FF1F074B1A78074B1B7870
:1056F0009A4206D001333F2B88BF0023044AD05C76
:1057000070474FF0FF30704723D5FF1FBAD4FF1FFB
:10571000E3D4FF1F024B1A78024B1A70704700BF88
:10572000BAD4FF1F23D5FF1F10B5214B1A7902F001
:105730002002D2B26AB11F4AD8791F49137809787A
:1057400001333F2B88BF00238B4202D01B49C85432
:105750001370174AD37818465BB2002B13DA13790B
:10576000190610D5164B17491C780B789C4202D1AC
:105770006C23D37007E00133272B88BF0023124C22
:10578000E45CD4710B7000F04003DBB27BB1084BDA
:105790001A7902F04002D2B2194642B10B4B0022F4
:1057A0001A700B4B1B6803B11A702C23CB7010BD01
:1057B00000C0064023D5FF1FBAD4FF1FE3D4FF1F4C
:1057C0002CD5FF1F24D5FF1FBBD4FF1FB9D4FF1F4B
:1057D00028D5FF1F1FB572B6154B70221A70154AD7
:1057E000412111700F2102F8011C80221A701A78D1
:1057F0001206FCD5104B186862B6104B984201D8BF
:105800000A23584301A90A22FDF7ECFE0C480023A5
:1058100001AA9A5C2AB100EB430101330A2B4A80AA
:10582000F6D10133064A5B00137005B000BD00BF1E
:105830000000024007000240080002407F969800E6
:10584000FCB3FF1F08B50368C9B21B68984708BDC1
:1058500008B50368C9B21B68984708BD08B5036856
:10586000C9B21B68984708BD08B50368C9B21B6870
:10587000984708BD084608B5FFF726FA012008BD7D
:10588000084608B5FFF720FA012008BD38B50846DC
:105890000D46FDF79FFE044621462846FFF75EFAB7
:1058A000204638BD10B5084614461146FFF756FA93
:1058B000204610BDFFF7BABAFFF704BBFFF7AABA3C
:1058C000FFF7D2BAFFF7E8BAFFF7C0BA0846FFF70A
:1058D000E1B9FFF7B3B9480800F1376000F5D830F7
:1058E000B0FBF1F0FFF73AB9480800F1376010B5A6
:1058F00000F5D830B0FBF1F01446FFF72FF9204641
:10590000BDE81040FFF770B97047FFFF044B00225D
:105910001A711A73034A4FF47A7199601A607047CA
:1059200030D5FF1F8877000008B50368C9B21B682F
:10593000984708BD08B50368C9B21B68984708BDF9
:1059400008B50368C9B21B68984708BD08B5036865
:10595000C9B21B68984708BD084608B5FFF7F2FBB7
:10596000012008BD084608B5FFF7ECFB012008BD83
:1059700038B508460D46FDF72DFE0446214628465B
:10598000FFF72AFC204638BD10B5084614461146DC
:10599000FFF722FC204610BDFFF786BCFFF7D0BC06
:1059A000FFF776BCFFF79EBCFFF7B4BCFFF78CBCDB
:1059B0000846FFF7ADBBFFF77FBB480800F1376033
:1059C00000F5D830B0FBF1F0FFF706BB480800F156
:1059D000376010B500F5D830B0FBF1F01446FFF792
:1059E000FBFA2046BDE81040FFF73CBB7047FFFFC5
:1059F000044B00221A711A73034A4FF47A719960AA
:105A00001A60704740D5FF1FD877000008B50368BB
:105A1000C9B21B68984708BD08B50368C9B21B68BE
:105A2000984708BD08B50368C9B21B68984708BD08
:105A300008B50368C9B21B68984708BD084608B591
:105A4000FFF7BAFD012008BD084608B5FFF7B4FD11
:105A5000012008BD38B508460D46FDF7BBFD0446DC
:105A600021462846FFF7F2FD204638BD10B508460E
:105A700014461146FFF7EAFD204610BDFFF7FEBDB4
:105A8000FFF748BEFFF7EEBDFFF716BEFFF72CBECF
:105A9000FFF704BE0846FFF775BDFFF747BD48088E
:105AA00000F1B76000F55840B0FBF1F0FFF7D2BC51
:105AB000480800F1B76010B500F55840B0FBF1F0B0
:105AC0001446FFF7C7FC2046BDE81040FFF704BDB1
:105AD0007047FFFF044B00221A711A73034A4FF4F8
